:1000000072C0BDC48BC08AC089C088C087C086C08A
:1000100085C084C083C082C081C080C07FC07EC0D4
:100020007DC07CC07BC005010906A10185010507D3
:1000300019E029E71500250175019508810295064B
:1000400075082565190029658100C005010902A10F
:10005000010901A1008502050919012903150025DF
:10006000019503750181029501750581030501095B
:100070003009311581257F750895028106C0C000C1
:100080001A0416070951504F522C0E0F040309048D
:1000900012036F0062006400650076002E006100AC
:1000A000740010034800490044004B0065007900CB
:1000B00073001201100100000008424231E100010A
:1000C000010200010902220001010080320904003E
:1000D000000103000000092101010001225900076D
:1000E00005810308000A11241FBECFE5D4E0DEBF5E
:1000F000CDBF10E0A0E6B0E0E6EFFBE002C0059067
:100100000D92A436B107D9F711E0A4E6B0E001C022
:100110001D92A132B107E1F7E3D06BC571CFFC01AD
:1001200080818076803249F581818130A9F4828195
:10013000813041F481E790E09093060180930501BE
:1001400088E008958230C9F489E790E09093060131
:100150008093050184E00895823041F48DE790E0BA
:10016000909306018093050181E008958A3029F477
:10017000838180937D0080E0089580E0089592E07F
:10018000909379009091700090937A0080937B0017
:1001900060937C008091F60084FF04C089E790E0C2
:1001A00064E0B3D308958095909170008923809383
:1001B000700092E09093790080937A0010927B0017
:1001C00010927C008091F60084FF04C089E790E0E3
:1001D00064E09BD30895982F82E08093790099235F
:1001E00019F4109270000CC0913011F0923019F493
:1001F0009093700005C0933019F484E080937000F0
:100200008091700080937A0010927B0010927C00A5
:100210008091F60084FF04C089E790E064E075D324
:10022000089591E09093710010927200A3E7B0E0FE
:10023000E82FF0E0E158FF4F94918C91891709F471
:100240001C92119680E0A937B807B9F78091F600A3
:1002500084FFFCCF81E790E068E057D3089591E0F8
:100260009093710010927200482F50E041585F4FF8
:10027000FA01949180917300891749F1809174007B
:10028000891729F180917500891709F1809176000D
:100290008917E9F0809177008917C9F0809178007B
:1002A0008917A9F022E030E0922FD901AF58BF4F53
:1002B0008C91882321F4FA0184918C9306C09F5F6E
:1002C0002F5F3F4F2830310579F7983041F080910A
:1002D000F60084FFFCCF81E790E068E016D3089534
:1002E0002F923F924F925F926F927F928F929F9246
:1002F000AF92BF92CF92DF92EF92FF920F931F9334
:10030000CF93DF932FE088E190E00FB6F894A895A3
:1003100081BD0FBE21BD80EC88BB87BB85BB84BB84
:1003200012BA85E081BB11BA83BFEFE7F0E010821B
:1003300011821282138214821582369620E0EB3EDF
:10034000F207A9F782E08EBDD0D17894552481E0E0
:10035000682E712C44244394AA24A39401C0582EDF
:10036000A895D0D190906E00E0906F0063010E2CA4
:1003700002C0CC0CDD1C0A94E2F7BC2C8C2C8094BF
:10038000C92DD0E0C158DF4FE2E8F0E01E018F0137
:1003900020E040E050E06AEF7FEF342FD101FC9085
:1003A0008F2D90E00E2C02C0959587950A94E2F768
:1003B0008170D8018C93463048F426B3C301042ED3
:1003C00002C0880F991F0A94E2F71FC0663048F4F4
:1003D00023B3C301062E02C0880F991F0A94E2F7C7
:1003E00014C04C3019F420B3227010C03D50353089
:1003F00068F420B34A505040C301042E02C0880F55
:10040000991F0A94E2F7465F5F4F282380E022237A
:1004100009F481E0282F882319F08B2D8F2902C041
:10042000882D8F21D1018C934F5F5F4F86E090E044
:10043000280E391E0A5F1F4F6F5F7F4F42315105F3
:1004400009F0ABCF888190E08C219D21892B19F098
:1004500081818F5F81838081882319F08181815020
:1004600081832696369690E0EE3EF90759F78E2D59
:100470008F5F80936F00883051F410926F00892D48
:100480008F5F80936E00833011F410926E00C3E88A
:10049000D0E010E001E089819881882321F19C302F
:1004A0000CF043C01982103111F481E003C0113106
:1004B00019F482E078DE39C01F3019F4109264001C
:1004C00034C01E3019F4109266002FC01D3019F48C
:1004D00010926A002AC01C3019F41092680025C0DE
:1004E000802F9FDE22C09F3004F14982103111F429
:1004F00081E003C0113119F482E06DDE16C01F30B7
:1005000019F4A092640011C01E3019F4A092660084
:100510000CC01D3019F4A0926A0007C01C3019F4F9
:10052000A092680002C0802F9ADE1F5F0F5F2696A0
:10053000123109F0B0CF20916400222361F4809140
:100540006600882341F480916800882321F480911B
:100550006A00882301F180916C0090916D000196F2
:1005600090936D0080936C00855F914048F01092ED
:100570006D0010926C00809160008F5F809360002E
:10058000222349F080916A00882329F0609160005D
:10059000862F6195F4DD80916600882349F0809173
:1005A0006A00882329F0609160006195862FE7DD5D
:1005B00080916400882341F080916800882321F0B5
:1005C00060916000862FDBDD80916600882349F012
:1005D00080916800882329F060916000862F8195C2
:1005E000CEDD80916400882339F08091600060E066
:1005F000C6DDA09265000FC010916500113059F45E
:1006000080E060E0BCDD1092650010926D001092F9
:100610006C001093600080916600882341F0809107
:100620006000819560E0ABDDA09267000FC0109183
:100630006700113059F480E060E0A1DD109267009E
:1006400010926D0010926C00109360008091680011
:10065000882339F080E06091600091DDA09269000C
:100660000FC010916900113059F480E060E087DD1F
:100670001092690010926D0010926C00109360004F
:1006800080916A00882341F060916000619580E06C
:1006900076DDA0926B000FC010916B00113059F401
:1006A00080E060E06CDD10926B0010926D001092A3
:1006B0006C00109360008CB59DB58D559440D8F3B7
:1006C0001EBC1DBC1CBC82E08EBD08B600FE48CE20
:1006D00048BE80917D00882309F442CE24E0251590
:1006E00008F03DCE3BEF530E3BCE85B7836085BF10
:1006F0008BB780648BBF8BE48093F7008AE580938F
:10070000F60008951F93CF93DF93909107019350C4
:1007100097FDA0C020910401809103018D3209F062
:1007200097C0983009F094C0CCE0D0E0C21BD1094A
:10073000C55FDE4F83EC8093EB008AE58093610018
:1007400010927E008881807621F0CE01E8DC282F8F
:1007500076C09A811092F4008981882321F4109246
:10076000F50022E066C0853019F49093080160C05E
:10077000863009F049C08B81813019F482EB90E01A
:100780001AC0823041F484EC90E09093060180938B
:10079000050122E235C08330F1F4992341F48CE85D
:1007A00090E0909306018093050124E029C09130E8
:1007B00041F480E990E0909306018093050122E1E5
:1007C0001FC09230E1F482EA90E09093060180939A
:1007D000050120E115C0813241F486ED90E090934F
:1007E00006018093050129E00BC0823241F486E2C4
:1007F00090E0909306018093050129E501C020E077
:1008000080E480937E001BC0883021F421E08AE0E0
:1008100091E011C0893019F490930A0109C08A301F
:1008200011F421E006C08B3019F48BE48093F700BB
:1008300020E084EF90E090930601809305018F8182
:10084000882321F48E81821708F4282F20936200D8
:10085000109207018091610084FF49C0809162007D
:100860008F3F09F444C0182F893008F018E0811B2D
:10087000809362008091EB0098E889278093EB00D9
:10088000112341F1209105013091060180917E00F4
:1008900086FF0DC0ACEEB0E080E090E0F901E80F1B
:1008A000F91FE491ED9301961817C1F708C0912F35
:1008B000D901ECEEF0E08D9181939150E1F7115068
:1008C000812F90E01F5F0196820F931F9093060186
:1008D000809305018CEE90E0612F4DD0612F6C5F0D
:1008E0006C3019F08FEF809362006093610094E1A7
:1008F00080B3857031F49150D9F7109208011092AD
:100900000201DF91CF911F9108951F93DC01162FF3
:100910008091F60084FF07C08091F70098E889274E
:100920008093F70003C08AE58093F600912FE8EFEB
:10093000F0E08D9181939150E1F788EF90E0612F85
:100940001AD01C5F1093F6001F910895A82FB92F9D
:1009500080E090E041E050EA609530E009C02D91E0
:1009600082279795879510F084279527305EC8F3E6
:100970006F5FA8F30895EADF8D939D930895CF9359
:10098000CFB7CF93C395809BE9F7809B09C0809B2D
:1009900007C0809B05C0809B03C0809B01C0A3C093
:1009A000DF93C0910401DD27C55FDE4F809B02C04D
:1009B000DF91EBCF2F930F931F9300B32FEF00FB2B
:1009C00020F94F933F9310B34FEF012700FB21F91C
:1009D0003BE031C04E7F012F10B3216028C0102FA3
:1009E0004D7F2260000000B329C04B7F2460012F9F
:1009F000000010B32BC010B3477F28602AC04F7E81
:100A000000B320612CC04F7D10B320622FC04F7BFC
:100A100000B3206432C0422700B349934FEF000077
:100A2000102710FB20F910B31570C9F1297F91F23E
:100A3000012700FB21F900B3237F89F2315058F1DF
:100A4000102710FB22F910B3277E79F2012700FB53
:100A500023F92F7C81F200B3102710FB24F92F79A2
:100A600071F200C010B3012700FB25F92F7359F272
:100A700000C000B3102710FB26F9223040F200C05E
:100A800010B3012700FB27F9243028F64F772068A0
:100A900010B30000F9CF10E41ABF002719C03B5073
:100AA0003195C31BD04010E41ABF0881033CF9F014
:100AB0000B34E9F0209102011981110F1213EDCFCF
:100AC0004A81441F093641F10D3211F0013E29F7E8
:100AD000009309013F914F911F910F912F91DF9149
:100AE000CAB7C6FD4FCFCF91CFBFCF9118952091F8
:100AF0000901222379F310910701112369F534309C
:100B00006AF13093070120930301109104013BE047
:100B1000311B3093040122C0009107010130E4F43D
:100B20000AE54F7049F43091610034FD19C000931B
:100B30006100CBEED0E018C03091F60034FD10C05B
:100B40000093F600C7EFD0E00FC02795A8F45150EE
:100B5000A9F4220F0000F9CF4AE503C042ED01C01D
:100B6000432FC4E1D0E032E011B31560909A11BB7D
:100B700002B320E415E05F93012756E002BB2795FE
:100B800020F4515021F4220FF9CF012756E0000044
:100B90003B5A02BBD0F2279528F4515029F4220F7A
:100BA0000000F9CF012756E0279502BB20F45150F1
:100BB00021F4220FF9CF012756E02991332302BBFC
:100BC00021F60A7F10910801110FC651D04002BBD7
:100BD00011F01093020110E41ABF016011B31A7FE3
:100BE000402F4A7F5F9100C000C002BB11BB42BBD7
:060BF00071CFF894FFCF65
:040BF600015AFF00A1
:00000001FF
